S0130000736572766F206D6F746F722E7372656391
S11300000C942A000C9447000C9447000C9447006D
S11300100C9447000C9447000C9447000C94470040
S11300200C9447000C9447000C9447000C94470030
S11300300C9447000C9447000C9447000C94470020
S11300400C9447000C9447000C9447000C94470010
S11300500C94470011241FBECFE5D8E0DEBFCDBF0E
S113006010E0A0E6B0E0E8EBF8E002C005900D92E5
S1130070A036B107D9F710E0A0E6B0E001C01D92A8
S1130080A036B107E1F70E94F5020C945A040C94CF
S11300900000823451F1833420F4813409F07BC0B0
S11300A007C0833409F43EC0843409F074C057C0D7
S11300B0413069F42AB381E090E0AC0102C0440FFE
S11300C0551F6A95E2F7BA01622B6ABB08952AB3F9
S11300D081E090E0AC0102C0440F551F6A95E2F73D
S11300E0BA01609562236ABB0895413069F427B36D
S11300F081E090E0AC0102C0440F551F6A95E2F71D
S1130100BA01622B67BB089527B381E090E0AC018C
S113011002C0440F551F6A95E2F7BA016095622345
S113012067BB0895413069F424B381E090E0AC01E9
S113013002C0440F551F6A95E2F7BA01622B64BBF3
S1130140089524B381E090E0AC0102C0440F551F30
S11301506A95E2F7BA016095622364BB0895413061
S113016069F421B381E090E0AC0102C0440F551F53
S11301706A95E2F7BA01622B61BB089521B381E06D
S113018090E0AC0102C0440F551F6A95E2F7BA0132
S11301906095622361BB0895823451F1833420F465
S11301A0813409F07BC007C0833409F43EC0843431
S11301B009F074C057C0413069F42BB381E090E07A
S11301C0AC0102C0440F551F6A95E2F7BA01622BD5
S11301D06BBB08952BB381E090E0AC0102C0440FE7
S11301E0551F6A95E2F7BA01609562236BBB0895C7
S11301F0413069F428B381E090E0AC0102C0440FBF
S1130200551F6A95E2F7BA01622B68BB089528B3BB
S113021081E090E0AC0102C0440F551F6A95E2F7FB
S1130220BA016095622368BB0895413069F425B32F
S113023081E090E0AC0102C0440F551F6A95E2F7DB
S1130240BA01622B65BB089525B381E090E0AC014F
S113025002C0440F551F6A95E2F7BA016095622304
S113026065BB0895413069F422B381E090E0AC01AC
S113027002C0440F551F6A95E2F7BA01622B62BBB4
S1130280089522B381E090E0AC0102C0440F551FF1
S11302906A95E2F7BA016095622362BB08958234DD
S11302A0F1F0833420F4813409F04FC006C0833464
S11302B041F1843409F049C036C029B381E090E0AB
S11302C0062E02C0880F991F0A94E2F730E08223B9
S11302D0932302C0959587956A95E2F7089526B30E
S11302E081E090E0062E02C0880F991F0A94E2F77D
S11302F030E08223932302C0959587956A95E2F7AF
S1130300089523B381E090E0062E02C0880F991F60
S11303100A94E2F730E08223932302C095958795EF
S11303206A95E2F7089520B381E090E0062E02C0BA
S1130330880F991F0A94E2F730E08223932302C0C6
S1130340959587956A95E2F7089580E0089582343B
S1130350B9F0833418F48134C9F505C08334E9F065
S11303608434A1F527C02BB381E090E0AC0102C036
S1130370440F551F6A95E2F7BA0162276BBB0895D3
S113038028B381E090E0AC0102C0440F551F6A9588
S1130390E2F7BA01622768BB089525B381E090E0D3
S11303A0AC0102C0440F551F6A95E2F7BA016227F7
S11303B065BB089522B381E090E0AC0102C0440F14
S11303C0551F6A95E2F7BA01622762BB0895823429
S11303D061F0833418F4813469F405C0833439F04E
S11303E0843441F406C06ABB089567BB089564BBB6
S11303F0089561BB0895823461F0833418F4813424
S113040069F405C0833439F0843441F406C06BBB0D
S1130410089568BB089565BB089562BB089582344E
S113042061F0833418F4813471F405C0833439F0F5
S1130430843449F406C089B3089586B3089583B318
S1130440089580B3089580E00895823451F183348F
S113045020F4813409F07BC007C0833409F43EC022
S1130460843409F074C057C0413069F42BB381E07F
S113047090E0AC0102C0440F551F6A95E2F7BA013F
S1130480622B6BBB08952BB381E090E0AC0102C0FA
S1130490440F551F6A95E2F7BA01609562236BBB5E
S11304A00895413069F428B381E090E0AC0102C0C2
S11304B0440F551F6A95E2F7BA01622B68BB089591
S11304C028B381E090E0AC0102C0440F551F6A9547
S11304D0E2F7BA016095622368BB0895413069F47C
S11304E025B381E090E0AC0102C0440F551F6A952A
S11304F0E2F7BA01622B65BB089525B381E090E071
S1130500AC0102C0440F551F6A95E2F7BA01609529
S1130510622365BB0895413069F422B381E090E021
S1130520AC0102C0440F551F6A95E2F7BA01622B71
S113053062BB089522B381E090E0AC0102C0440F95
S1130540551F6A95E2F7BA016095622362BB08956C
S11305506F70823481F0833418F48134F1F405C06F
S1130560833479F08434C9F412C08BB3807F8BBB9D
S11305708BB3862B8BBB88B3807F88BB88B3862BD9
S113058088BB85B3807F85BB85B3862B85BB82B34F
S1130590807F82BB82B3682B62BB08956295607FC3
S11305A0823481F0833418F48134F1F405C0833447
S11305B079F08434C9F412C08BB38F708BBB8BB3C6
S11305C0862B8BBB88B38F7088BB88B3862B88BB84
S11305D085B38F7085BB85B3862B85BB82B38F7043
S11305E082BB82B3682B62BB089583E460E041E080
S11305F00E94490083E461E041E00E94490083E4F1
S113060060E041E00E94CC0083E461E040E00E94AD
S1130610CC008FEF9DE3A9E481509040A040E1F726
S113062000C0000083E460E040E00E94CC0083E46A
S113063061E041E00E94CC008FEF9DE3A9E481508A
S11306409040A040E1F700C00000D9CF83B7886094
S113065083BF80E58CBF83B7816083BF83B7846029
S113066083BF789489B7826089BF0895BB9A83B7A2
S1130670886083BF80E48CBF83B7816083BF83B706
S1130680846083BF83B7806183BF08958D9A2FB53B
S113069022602FBD2EB528602EBD2EB520612EBD43
S11306A020E030E04AE754E40E94CF030E947A033A
S11306B0DC01CB019BBD8ABD8FE19EE497BD86BD65
S11306C08EB581608EBD8FB580688FBD0895BB9A4D
S11306D083B7806483BF80E48CBF83B7816083BFAA
S11306E083B7846083BF83B7806183BF83B780622D
S11306F083BF089533D088F09F5790F0B92F99277E
S1130700B751A0F0D1F0660F771F881F991F1AF018
S1130710BA95C9F712C0B13081F03AD0B1E008956A
S113072037C0672F782F8827B85F39F0B93FCCF3EB
S1130730869577956795B395D9F73EF4909580950E
S1130740709561957F4F8F4F9F4F089557FD905837
S1130750440F551F59F05F3F71F04795880F97FB81
S1130760991F61F09F3F79F087950895121613063B
S11307701406551FF2CF4695F1DF08C0161617066A
S11307801806991FF1CF869571056105089408959F
S1130790E894BB2766277727CB0197F908950BD0F8
S11307A078C069D028F06ED018F0952309F05AC0AB
S11307B05FC01124EECFCADFA0F3959FD1F3950F4C
S11307C050E0551F629FF001729FBB27F00DB11DD1
S11307D0639FAA27F00DB11DAA1F649F6627B00D61
S11307E0A11D661F829F2227B00DA11D621F739F4A
S11307F0B00DA11D621F839FA00D611D221F749F58
S11308003327A00D611D231F849F600D211D822F9E
S1130810762F6A2F11249F5750408AF0E1F08823E5
S11308204AF0EE0FFF1FBB1F661F771F881F9150F2
S11308305040A9F79E3F510570F014C0AACF5F3F06
S1130840ECF3983EDCF3869577956795B795F79525
S1130850E7959F5FC1F7FE2B880F911D96958795AD
S113086097F9089597F99F6780E870E060E008952C
S11308709FEF80EC089500240A94161617061806B4
S11308800906089500240A94121613061406050690
S11308900895092E0394000C11F4882352F0BB0F21
S11308A040F4BF2B11F460FF04C06F5F7F4F8F4F84
S10B08B09F4F0895F894FFCF57
S9030000FC
