S0110000536D6172742046414E2E7372656317
S11300000C942A000C9447000C9447000C9447006D
S11300100C9447000C9447000C9447000C94470040
S11300200C9447000C9447000C9447000C94470030
S11300300C9447000C947C030C9447000C944700E8
S11300400C9447000C9447000C9447000C94470010
S11300500C94470011241FBECFE5D8E0DEBFCDBF0E
S113006010E0A0E6B0E0E0E8FDE002C005900D92EB
S1130070A236B107D9F710E0A2E6B0E001C01D92A4
S1130080A336B107E1F70E9437030C94BE060C9423
S11300900000823451F1833420F4813409F07BC0B0
S11300A007C0833409F43EC0843409F074C057C0D7
S11300B0413069F42AB381E090E0AC0102C0440FFE
S11300C0551F6A95E2F7BA01622B6ABB08952AB3F9
S11300D081E090E0AC0102C0440F551F6A95E2F73D
S11300E0BA01609562236ABB0895413069F427B36D
S11300F081E090E0AC0102C0440F551F6A95E2F71D
S1130100BA01622B67BB089527B381E090E0AC018C
S113011002C0440F551F6A95E2F7BA016095622345
S113012067BB0895413069F424B381E090E0AC01E9
S113013002C0440F551F6A95E2F7BA01622B64BBF3
S1130140089524B381E090E0AC0102C0440F551F30
S11301506A95E2F7BA016095622364BB0895413061
S113016069F421B381E090E0AC0102C0440F551F53
S11301706A95E2F7BA01622B61BB089521B381E06D
S113018090E0AC0102C0440F551F6A95E2F7BA0132
S11301906095622361BB0895823451F1833420F465
S11301A0813409F07BC007C0833409F43EC0843431
S11301B009F074C057C0413069F42BB381E090E07A
S11301C0AC0102C0440F551F6A95E2F7BA01622BD5
S11301D06BBB08952BB381E090E0AC0102C0440FE7
S11301E0551F6A95E2F7BA01609562236BBB0895C7
S11301F0413069F428B381E090E0AC0102C0440FBF
S1130200551F6A95E2F7BA01622B68BB089528B3BB
S113021081E090E0AC0102C0440F551F6A95E2F7FB
S1130220BA016095622368BB0895413069F425B32F
S113023081E090E0AC0102C0440F551F6A95E2F7DB
S1130240BA01622B65BB089525B381E090E0AC014F
S113025002C0440F551F6A95E2F7BA016095622304
S113026065BB0895413069F422B381E090E0AC01AC
S113027002C0440F551F6A95E2F7BA01622B62BBB4
S1130280089522B381E090E0AC0102C0440F551FF1
S11302906A95E2F7BA016095622362BB08958234DD
S11302A0F1F0833420F4813409F04FC006C0833464
S11302B041F1843409F049C036C029B381E090E0AB
S11302C0062E02C0880F991F0A94E2F730E08223B9
S11302D0932302C0959587956A95E2F7089526B30E
S11302E081E090E0062E02C0880F991F0A94E2F77D
S11302F030E08223932302C0959587956A95E2F7AF
S1130300089523B381E090E0062E02C0880F991F60
S11303100A94E2F730E08223932302C095958795EF
S11303206A95E2F7089520B381E090E0062E02C0BA
S1130330880F991F0A94E2F730E08223932302C0C6
S1130340959587956A95E2F7089580E0089582343B
S1130350B9F0833418F48134C9F505C08334E9F065
S11303608434A1F527C02BB381E090E0AC0102C036
S1130370440F551F6A95E2F7BA0162276BBB0895D3
S113038028B381E090E0AC0102C0440F551F6A9588
S1130390E2F7BA01622768BB089525B381E090E0D3
S11303A0AC0102C0440F551F6A95E2F7BA016227F7
S11303B065BB089522B381E090E0AC0102C0440F14
S11303C0551F6A95E2F7BA01622762BB0895823429
S11303D061F0833418F4813469F405C0833439F04E
S11303E0843441F406C06ABB089567BB089564BBB6
S11303F0089561BB0895823461F0833418F4813424
S113040069F405C0833439F0843441F406C06BBB0D
S1130410089568BB089565BB089562BB089582344E
S113042061F0833418F4813471F405C0833439F0F5
S1130430843449F406C089B3089586B3089583B318
S1130440089580B3089580E00895823451F183348F
S113045020F4813409F07BC007C0833409F43EC022
S1130460843409F074C057C0413069F42BB381E07F
S113047090E0AC0102C0440F551F6A95E2F7BA013F
S1130480622B6BBB08952BB381E090E0AC0102C0FA
S1130490440F551F6A95E2F7BA01609562236BBB5E
S11304A00895413069F428B381E090E0AC0102C0C2
S11304B0440F551F6A95E2F7BA01622B68BB089591
S11304C028B381E090E0AC0102C0440F551F6A9547
S11304D0E2F7BA016095622368BB0895413069F47C
S11304E025B381E090E0AC0102C0440F551F6A952A
S11304F0E2F7BA01622B65BB089525B381E090E071
S1130500AC0102C0440F551F6A95E2F7BA01609529
S1130510622365BB0895413069F422B381E090E021
S1130520AC0102C0440F551F6A95E2F7BA01622B71
S113053062BB089522B381E090E0AC0102C0440F95
S1130540551F6A95E2F7BA016095622362BB08956C
S11305506F70823481F0833418F48134F1F405C06F
S1130560833479F08434C9F412C08BB3807F8BBB9D
S11305708BB3862B8BBB88B3807F88BB88B3862BD9
S113058088BB85B3807F85BB85B3862B85BB82B34F
S1130590807F82BB82B3682B62BB08956295607FC3
S11305A0823481F0833418F48134F1F405C0833447
S11305B079F08434C9F412C08BB38F708BBB8BB3C6
S11305C0862B8BBB88B38F7088BB88B3862B88BB84
S11305D085B38F7085BB85B3862B85BB82B38F7043
S11305E082BB82B3682B62BB089541E00E9449003C
S11305F00895642F70E080E090E00E94AD052AE940
S113060039E949EF5FE30E94390644E40E941E047D
S1130610089560E070E0CB0144E40E941E0484E489
S113062064E040E00E94CC00089541E00E9449004B
S11306300895682F772767FD7095872F972F0E945D
S1130640AD0520E030E044EB52E40E94170520E0C1
S113065030E040E05FE30E94390620E030E040E80B
S11306605FE30E94B30443E50E941E04089583E4FB
S113067060E00E94F50284E465E00E94150360E8EE
S113068075E280E090E00E946F040E949204C6EA42
S11306900AC08C2F0E9419038FE39CE90197F1F79C
S11306A000C00000CF5FCA3544F4809161008133FB
S11306B021F480916000833361F3C73AA4F38091FD
S11306C06100813381F780916000833361F78C2F5F
S11306D00E9419038FE39CE90197F1F700C0000021
S11306E0C150C63A01F3809161008133E1F68091F3
S11306F06000833361F3D7CF1F920F920FB60F922E
S113070011242F933F934F935F936F937F938F9312
S11307109F93AF93BF93EF93FF930E9499048093A9
S1130720620080916200833319F48093600055C0A5
S113073080916200823319F4809360004EC08091EE
S11307406200813349F484E464E044E00E94F902E5
S113075081E38093610041C080916200803351F451
S113076083E490E060E070E00E94090380E38093FA
S1130770610033C080916200843349F484E464E00E
S113078044E00E94F90281E38093610026C08091D5
S11307906200853349F484E464E045E00E94F90290
S11307A081E38093610019C080916200863349F42B
S11307B084E464E046E00E94F90281E380936100EE
S11307C00CC080916200873341F484E464E047E024
S11307D00E94F90281E380936100FF91EF91BF9140
S11307E0AF919F918F917F916F915F914F913F91C5
S11307F02F910F900FBE0F901F90189583B78860AC
S113080083BF80E58CBF83B7816083BF83B7846077
S113081083BF789489B7826089BF0895BB9A83B7F0
S1130820886083BF80E48CBF83B7816083BF83B754
S1130830846083BF83B7806183BF08958D9A8C9A47
S11308402FB522602FBD2EB528602EBD2EB5206198
S11308502EBD443419F0433571F517C020E030E063
S11308604AE754E40E9439060E947F05DC01CB016B
S113087099BD88BD8FE19EE497BD86BD8EB582602B
S11308808EBD8FB580628FBD089520E030E04AE7C9
S113089054E40E9439060E947F05DC01CB019BBD14
S11308A08ABD8FE19EE497BD86BD8EB582608EBD04
S11308B08FB580688FBD0895BB9A83B7806483BF6A
S11308C080E48CBF83B7816083BF83B7846083BFB8
S11308D083B7806183BF83B7806283BF0895DC01DF
S11308E0CB01880F991FAA1FBB1F880F991FAA1F2E
S11308F0BB1F9C01AD01220F331F441F551F220F44
S1130900331F441F551F60E072E18AE790E00E94A4
S11309109C062150304030BD29B9539A549A86E838
S113092080BD08957894579A08955D9BFECF8CB945
S113093008955F9BFECF8CB10895CF93DF93EC01B4
S11309408881882361F021960E94950487EA91E6C4
S11309500197F1F700C0000089918823A9F7DF917E
S1130960CF9108955058BB27AA270ED048C139D13A
S113097030F03ED120F031F49F3F11F41EF42EC12B
S11309800EF4E095E7FB24C1E92F4AD180F3BA17AE
S1130990620773078407950718F071F49EF562C126
S11309A00EF4E0950B2EBA2FA02D0B01B901900186
S11309B00C01CA01A0011124FF27591B99F0593FCA
S11309C050F4503E68F11A16F040A22F232F342F12
S11309D04427585FF3CF469537952795A795F04060
S11309E05395C9F77EF41F16BA0B620B730B840B75
S11309F0BAF09150A1F0FF0FBB1F661F771F881F2D
S1130A00C2F70EC0BA0F621F731F841F48F4879584
S1130A1077956795B795F7959E3F08F0B3CF939573
S1130A20880F08F09927EE0F9795879508950CD0B5
S1130A30E6C0DED040F0D5D030F021F45F3F19F0AD
S1130A40C7C0511110C1CAC0EBD098F39923C9F3A0
S1130A505523B1F3951B550BBB27AA2762177307C0
S1130A60840738F09F5F5F4F220F331F441FAA1F74
S1130A70A9F333D00E2E3AF0E0E830D09150504034
S1130A80E695001CCAF729D0FE2F27D0660F771FE2
S1130A90881FBB1F261737074807AB07B0E809F0C4
S1130AA0BB0B802DBF01FF2793585F4F2AF09E3F59
S1130AB0510568F08DC0D7C05F3FECF3983EDCF37E
S1130AC0869577956795B795F7959F5FC9F7880FD2
S1130AD0911D9695879597F90895E1E0660F771F24
S1130AE0881FBB1F621773078407BA0720F0621BB5
S1130AF0730B840BBA0BEE1F88F7E095089598D01A
S1130B0088F09F5790F0B92F9927B751A0F0D1F0F2
S1130B10660F771F881F991F1AF0BA95C9F712C07C
S1130B20B13081F09FD0B1E008959CC0672F782F39
S1130B308827B85F39F0B93FCCF3869577956795E8
S1130B40B395D9F73EF490958095709561957F4F54
S1130B508F4F9F4F0895E89409C097FB3EF49095FA
S1130B608095709561957F4F8F4F9F4F9923A9F082
S1130B70F92F96E9BB279395F69587957795679511
S1130B80B795F111F8CFFAF4BB0F11F460FF1BC055
S1130B906F5F7F4F8F4F9F4F16C0882311F096E9E8
S1130BA011C0772321F09EE8872F762F05C0662396
S1130BB071F096E8862F70E060E02AF09A95660F4F
S1130BC0771F881FDAF7880F9695879597F9089508
S1130BD097F99F6780E870E060E008959FEF80ECEC
S1130BE0089500240A94161617061806090608958F
S1130BF000240A9412161306140605060895092EF5
S1130C000394000C11F4882352F0BB0F40F4BF2B63
S1130C1011F460FF04C06F5F7F4F8F4F9F4F0895A3
S1130C2057FD9058440F551F59F05F3F71F0479599
S1130C30880F97FB991F61F09F3F79F0879508957E
S1130C40121613061406551FF2CF4695F1DF08C09D
S1130C50161617061806991FF1CF869571056105BA
S1130C6008940895E894BB2766277727CB0197F962
S1130C7008950BD0C4CFB5DF28F0BADF18F0952360
S1130C8009F0A6CFABCF1124EECFCADFA0F3959F16
S1130C90D1F3950F50E0551F629FF001729FBB275F
S1130CA0F00DB11D639FAA27F00DB11DAA1F649F0B
S1130CB06627B00DA11D661F829F2227B00DA11DBE
S1130CC0621F739FB00DA11D621F839FA00D611D44
S1130CD0221F749F3327A00D611D231F849F600D65
S1130CE0211D822F762F6A2F11249F5750408AF09E
S1130CF0E1F088234AF0EE0FFF1FBB1F661F771F2A
S1130D00881F91505040A9F79E3F510570F060CF65
S1130D10AACF5F3FECF3983EDCF386957795679511
S1130D20B795F795E7959F5FC1F7FE2B880F911D47
S1130D309695879597F90895A1E21A2EAA1BBB1BD5
S1130D40FD010DC0AA1FBB1FEE1FFF1FA217B30793
S1130D50E407F50720F0A21BB30BE40BF50B661FA9
S1130D60771F881F991F1A9469F76095709580956D
S1130D7090959B01AC01BD01CF010895F894FFCF7C
S1050D8032300B
S9030000FC
